{
  "contractName": "AutoMint",
  "abi": [
    {
      "inputs": [],
      "stateMutability": "nonpayable",
      "type": "constructor"
    },
    {
      "anonymous": false,
      "inputs": [
        {
          "indexed": true,
          "internalType": "address",
          "name": "owner",
          "type": "address"
        },
        {
          "indexed": true,
          "internalType": "address",
          "name": "approved",
          "type": "address"
        },
        {
          "indexed": true,
          "internalType": "uint256",
          "name": "tokenId",
          "type": "uint256"
        }
      ],
      "name": "Approval",
      "type": "event"
    },
    {
      "anonymous": false,
      "inputs": [
        {
          "indexed": true,
          "internalType": "address",
          "name": "owner",
          "type": "address"
        },
        {
          "indexed": true,
          "internalType": "address",
          "name": "operator",
          "type": "address"
        },
        {
          "indexed": false,
          "internalType": "bool",
          "name": "approved",
          "type": "bool"
        }
      ],
      "name": "ApprovalForAll",
      "type": "event"
    },
    {
      "anonymous": false,
      "inputs": [
        {
          "indexed": true,
          "internalType": "address",
          "name": "previousOwner",
          "type": "address"
        },
        {
          "indexed": true,
          "internalType": "address",
          "name": "newOwner",
          "type": "address"
        }
      ],
      "name": "OwnershipTransferred",
      "type": "event"
    },
    {
      "anonymous": false,
      "inputs": [
        {
          "indexed": true,
          "internalType": "address",
          "name": "from",
          "type": "address"
        },
        {
          "indexed": true,
          "internalType": "address",
          "name": "to",
          "type": "address"
        },
        {
          "indexed": true,
          "internalType": "uint256",
          "name": "tokenId",
          "type": "uint256"
        }
      ],
      "name": "Transfer",
      "type": "event"
    },
    {
      "inputs": [
        {
          "internalType": "address",
          "name": "to",
          "type": "address"
        },
        {
          "internalType": "uint256",
          "name": "tokenId",
          "type": "uint256"
        }
      ],
      "name": "approve",
      "outputs": [],
      "stateMutability": "nonpayable",
      "type": "function"
    },
    {
      "inputs": [
        {
          "internalType": "address",
          "name": "owner",
          "type": "address"
        }
      ],
      "name": "balanceOf",
      "outputs": [
        {
          "internalType": "uint256",
          "name": "",
          "type": "uint256"
        }
      ],
      "stateMutability": "view",
      "type": "function"
    },
    {
      "inputs": [],
      "name": "carPrice",
      "outputs": [
        {
          "internalType": "uint256",
          "name": "",
          "type": "uint256"
        }
      ],
      "stateMutability": "view",
      "type": "function"
    },
    {
      "inputs": [
        {
          "internalType": "uint256",
          "name": "tokenId",
          "type": "uint256"
        }
      ],
      "name": "getApproved",
      "outputs": [
        {
          "internalType": "address",
          "name": "",
          "type": "address"
        }
      ],
      "stateMutability": "view",
      "type": "function"
    },
    {
      "inputs": [
        {
          "internalType": "address",
          "name": "owner",
          "type": "address"
        },
        {
          "internalType": "address",
          "name": "operator",
          "type": "address"
        }
      ],
      "name": "isApprovedForAll",
      "outputs": [
        {
          "internalType": "bool",
          "name": "",
          "type": "bool"
        }
      ],
      "stateMutability": "view",
      "type": "function"
    },
    {
      "inputs": [],
      "name": "name",
      "outputs": [
        {
          "internalType": "string",
          "name": "",
          "type": "string"
        }
      ],
      "stateMutability": "view",
      "type": "function"
    },
    {
      "inputs": [],
      "name": "owner",
      "outputs": [
        {
          "internalType": "address",
          "name": "",
          "type": "address"
        }
      ],
      "stateMutability": "view",
      "type": "function"
    },
    {
      "inputs": [
        {
          "internalType": "uint256",
          "name": "tokenId",
          "type": "uint256"
        }
      ],
      "name": "ownerOf",
      "outputs": [
        {
          "internalType": "address",
          "name": "",
          "type": "address"
        }
      ],
      "stateMutability": "view",
      "type": "function"
    },
    {
      "inputs": [],
      "name": "renounceOwnership",
      "outputs": [],
      "stateMutability": "nonpayable",
      "type": "function"
    },
    {
      "inputs": [
        {
          "internalType": "uint256",
          "name": "",
          "type": "uint256"
        }
      ],
      "name": "requestIdToSender",
      "outputs": [
        {
          "internalType": "address",
          "name": "",
          "type": "address"
        }
      ],
      "stateMutability": "view",
      "type": "function"
    },
    {
      "inputs": [
        {
          "internalType": "address",
          "name": "from",
          "type": "address"
        },
        {
          "internalType": "address",
          "name": "to",
          "type": "address"
        },
        {
          "internalType": "uint256",
          "name": "tokenId",
          "type": "uint256"
        }
      ],
      "name": "safeTransferFrom",
      "outputs": [],
      "stateMutability": "nonpayable",
      "type": "function"
    },
    {
      "inputs": [
        {
          "internalType": "address",
          "name": "from",
          "type": "address"
        },
        {
          "internalType": "address",
          "name": "to",
          "type": "address"
        },
        {
          "internalType": "uint256",
          "name": "tokenId",
          "type": "uint256"
        },
        {
          "internalType": "bytes",
          "name": "_data",
          "type": "bytes"
        }
      ],
      "name": "safeTransferFrom",
      "outputs": [],
      "stateMutability": "nonpayable",
      "type": "function"
    },
    {
      "inputs": [
        {
          "internalType": "address",
          "name": "operator",
          "type": "address"
        },
        {
          "internalType": "bool",
          "name": "approved",
          "type": "bool"
        }
      ],
      "name": "setApprovalForAll",
      "outputs": [],
      "stateMutability": "nonpayable",
      "type": "function"
    },
    {
      "inputs": [
        {
          "internalType": "bytes4",
          "name": "interfaceId",
          "type": "bytes4"
        }
      ],
      "name": "supportsInterface",
      "outputs": [
        {
          "internalType": "bool",
          "name": "",
          "type": "bool"
        }
      ],
      "stateMutability": "view",
      "type": "function"
    },
    {
      "inputs": [],
      "name": "symbol",
      "outputs": [
        {
          "internalType": "string",
          "name": "",
          "type": "string"
        }
      ],
      "stateMutability": "view",
      "type": "function"
    },
    {
      "inputs": [
        {
          "internalType": "uint256",
          "name": "tokenId",
          "type": "uint256"
        }
      ],
      "name": "tokenURI",
      "outputs": [
        {
          "internalType": "string",
          "name": "",
          "type": "string"
        }
      ],
      "stateMutability": "view",
      "type": "function"
    },
    {
      "inputs": [
        {
          "internalType": "address",
          "name": "from",
          "type": "address"
        },
        {
          "internalType": "address",
          "name": "to",
          "type": "address"
        },
        {
          "internalType": "uint256",
          "name": "tokenId",
          "type": "uint256"
        }
      ],
      "name": "transferFrom",
      "outputs": [],
      "stateMutability": "nonpayable",
      "type": "function"
    },
    {
      "inputs": [
        {
          "internalType": "address",
          "name": "newOwner",
          "type": "address"
        }
      ],
      "name": "transferOwnership",
      "outputs": [],
      "stateMutability": "nonpayable",
      "type": "function"
    },
    {
      "inputs": [],
      "name": "mintCar",
      "outputs": [],
      "stateMutability": "payable",
      "type": "function"
    }
  ],
  "bytecode": "0x60806040523480156200001157600080fd5b506040518060400160405280600881526020017f4175746f4d696e740000000000000000000000000000000000000000000000008152506040518060400160405280600381526020017f4155540000000000000000000000000000000000000000000000000000000000815250816000908051906020019062000096929190620001ae565b508060019080519060200190620000af929190620001ae565b505050620000d2620000c6620000e060201b60201c565b620000e860201b60201c565b6000600781905550620002c3565b600033905090565b6000600660009054906101000a900473ffffffffffffffffffffffffffffffffffffffff16905081600660006101000a81548173ffffffffffffffffffffffffffffffffffffffff021916908373ffffffffffffffffffffffffffffffffffffffff1602179055508173ffffffffffffffffffffffffffffffffffffffff168173ffffffffffffffffffffffffffffffffffffffff167f8be0079c531659141344cd1fd0a4f28419497f9722a3daafe3b4186f6b6457e060405160405180910390a35050565b828054620001bc906200028d565b90600052602060002090601f016020900481019282620001e057600085556200022c565b82601f10620001fb57805160ff19168380011785556200022c565b828001600101855582156200022c579182015b828111156200022b5782518255916020019190600101906200020e565b5b5090506200023b91906200023f565b5090565b5b808211156200025a57600081600090555060010162000240565b5090565b7f4e487b7100000000000000000000000000000000000000000000000000000000600052602260045260246000fd5b60006002820490506001821680620002a657607f821691505b60208210811415620002bd57620002bc6200025e565b5b50919050565b612c8380620002d36000396000f3fe6080604052600436106101145760003560e01c8063715018a6116100a0578063a22cb46511610064578063a22cb46514610392578063b88d4fde146103bb578063c87b56dd146103e4578063e985e9c514610421578063f2fde38b1461045e57610114565b8063715018a6146102bd5780638da5cb5b146102d45780638e2de4d3146102ff57806395285deb1461033c57806395d89b411461036757610114565b806323b872dd116100e757806323b872dd146101e75780633a7bb4b21461021057806342842e0e1461021a5780636352211e1461024357806370a082311461028057610114565b806301ffc9a71461011957806306fdde0314610156578063081812fc14610181578063095ea7b3146101be575b600080fd5b34801561012557600080fd5b50610140600480360381019061013b9190611b08565b610487565b60405161014d9190611b50565b60405180910390f35b34801561016257600080fd5b5061016b610569565b6040516101789190611c04565b60405180910390f35b34801561018d57600080fd5b506101a860048036038101906101a39190611c5c565b6105fb565b6040516101b59190611cca565b60405180910390f35b3480156101ca57600080fd5b506101e560048036038101906101e09190611d11565b610680565b005b3480156101f357600080fd5b5061020e60048036038101906102099190611d51565b610798565b005b6102186107f8565b005b34801561022657600080fd5b50610241600480360381019061023c9190611d51565b610827565b005b34801561024f57600080fd5b5061026a60048036038101906102659190611c5c565b610847565b6040516102779190611cca565b60405180910390f35b34801561028c57600080fd5b506102a760048036038101906102a29190611da4565b6108f9565b6040516102b49190611de0565b60405180910390f35b3480156102c957600080fd5b506102d26109b1565b005b3480156102e057600080fd5b506102e9610a39565b6040516102f69190611cca565b60405180910390f35b34801561030b57600080fd5b5061032660048036038101906103219190611c5c565b610a63565b6040516103339190611cca565b60405180910390f35b34801561034857600080fd5b50610351610a96565b60405161035e9190611de0565b60405180910390f35b34801561037357600080fd5b5061037c610aa2565b6040516103899190611c04565b60405180910390f35b34801561039e57600080fd5b506103b960048036038101906103b49190611e27565b610b34565b005b3480156103c757600080fd5b506103e260048036038101906103dd9190611f9c565b610cb5565b005b3480156103f057600080fd5b5061040b60048036038101906104069190611c5c565b610d17565b6040516104189190611c04565b60405180910390f35b34801561042d57600080fd5b506104486004803603810190610443919061201f565b610dbe565b6040516104559190611b50565b60405180910390f35b34801561046a57600080fd5b5061048560048036038101906104809190611da4565b610e52565b005b60007f80ac58cd000000000000000000000000000000000000000000000000000000007bffffffffffffffffffffffffffffffffffffffffffffffffffffffff1916827bffffffffffffffffffffffffffffffffffffffffffffffffffffffff1916148061055257507f5b5e139f000000000000000000000000000000000000000000000000000000007bffffffffffffffffffffffffffffffffffffffffffffffffffffffff1916827bffffffffffffffffffffffffffffffffffffffffffffffffffffffff1916145b80610562575061056182610f4a565b5b9050919050565b6060600080546105789061208e565b80601f01602080910402602001604051908101604052809291908181526020018280546105a49061208e565b80156105f15780601f106105c6576101008083540402835291602001916105f1565b820191906000526020600020905b8154815290600101906020018083116105d457829003601f168201915b5050505050905090565b600061060682610fb4565b610645576040517f08c379a000000000000000000000000000000000000000000000000000000000815260040161063c90612132565b60405180910390fd5b6004600083815260200190815260200160002060009054906101000a900473ffffffffffffffffffffffffffffffffffffffff169050919050565b600061068b82610847565b90508073ffffffffffffffffffffffffffffffffffffffff168373ffffffffffffffffffffffffffffffffffffffff1614156106fc576040517f08c379a00000000000000000000000000000000000000000000000000000000081526004016106f3906121c4565b60405180910390fd5b8073ffffffffffffffffffffffffffffffffffffffff1661071b611020565b73ffffffffffffffffffffffffffffffffffffffff16148061074a575061074981610744611020565b610dbe565b5b610789576040517f08c379a000000000000000000000000000000000000000000000000000000000815260040161078090612256565b60405180910390fd5b6107938383611028565b505050565b6107a96107a3611020565b826110e1565b6107e8576040517f08c379a00000000000000000000000000000000000000000000000000000000081526004016107df906122e8565b60405180910390fd5b6107f38383836111bf565b505050565b60006007549050610809338261141b565b6007546007600082825461081d9190612337565b9250508190555050565b61084283838360405180602001604052806000815250610cb5565b505050565b6000806002600084815260200190815260200160002060009054906101000a900473ffffffffffffffffffffffffffffffffffffffff169050600073ffffffffffffffffffffffffffffffffffffffff168173ffffffffffffffffffffffffffffffffffffffff1614156108f0576040517f08c379a00000000000000000000000000000000000000000000000000000000081526004016108e7906123ff565b60405180910390fd5b80915050919050565b60008073ffffffffffffffffffffffffffffffffffffffff168273ffffffffffffffffffffffffffffffffffffffff16141561096a576040517f08c379a000000000000000000000000000000000000000000000000000000000815260040161096190612491565b60405180910390fd5b600360008373ffffffffffffffffffffffffffffffffffffffff1673ffffffffffffffffffffffffffffffffffffffff168152602001908152602001600020549050919050565b6109b9611020565b73ffffffffffffffffffffffffffffffffffffffff166109d7610a39565b73ffffffffffffffffffffffffffffffffffffffff1614610a2d576040517f08c379a0000000000000000000000000000000000000000000000000000000008152600401610a24906124fd565b60405180910390fd5b610a376000611439565b565b6000600660009054906101000a900473ffffffffffffffffffffffffffffffffffffffff16905090565b60086020528060005260406000206000915054906101000a900473ffffffffffffffffffffffffffffffffffffffff1681565b671bc16d674ec8000081565b606060018054610ab19061208e565b80601f0160208091040260200160405190810160405280929190818152602001828054610add9061208e565b8015610b2a5780601f10610aff57610100808354040283529160200191610b2a565b820191906000526020600020905b815481529060010190602001808311610b0d57829003601f168201915b5050505050905090565b610b3c611020565b73ffffffffffffffffffffffffffffffffffffffff168273ffffffffffffffffffffffffffffffffffffffff161415610baa576040517f08c379a0000000000000000000000000000000000000000000000000000000008152600401610ba190612569565b60405180910390fd5b8060056000610bb7611020565b73ffffffffffffffffffffffffffffffffffffffff1673ffffffffffffffffffffffffffffffffffffffff16815260200190815260200160002060008473ffffffffffffffffffffffffffffffffffffffff1673ffffffffffffffffffffffffffffffffffffffff16815260200190815260200160002060006101000a81548160ff0219169083151502179055508173ffffffffffffffffffffffffffffffffffffffff16610c64611020565b73ffffffffffffffffffffffffffffffffffffffff167f17307eab39ab6107e8899845ad3d59bd9653f200f220920489ca2b5937696c3183604051610ca99190611b50565b60405180910390a35050565b610cc6610cc0611020565b836110e1565b610d05576040517f08c379a0000000000000000000000000000000000000000000000000000000008152600401610cfc906122e8565b60405180910390fd5b610d11848484846114ff565b50505050565b6060610d2282610fb4565b610d61576040517f08c379a0000000000000000000000000000000000000000000000000000000008152600401610d58906125fb565b60405180910390fd5b6000610d6b61155b565b90506000815111610d8b5760405180602001604052806000815250610db6565b80610d9584611572565b604051602001610da6929190612657565b6040516020818303038152906040525b915050919050565b6000600560008473ffffffffffffffffffffffffffffffffffffffff1673ffffffffffffffffffffffffffffffffffffffff16815260200190815260200160002060008373ffffffffffffffffffffffffffffffffffffffff1673ffffffffffffffffffffffffffffffffffffffff16815260200190815260200160002060009054906101000a900460ff16905092915050565b610e5a611020565b73ffffffffffffffffffffffffffffffffffffffff16610e78610a39565b73ffffffffffffffffffffffffffffffffffffffff1614610ece576040517f08c379a0000000000000000000000000000000000000000000000000000000008152600401610ec5906124fd565b60405180910390fd5b600073ffffffffffffffffffffffffffffffffffffffff168173ffffffffffffffffffffffffffffffffffffffff161415610f3e576040517f08c379a0000000000000000000000000000000000000000000000000000000008152600401610f35906126ed565b60405180910390fd5b610f4781611439565b50565b60007f01ffc9a7000000000000000000000000000000000000000000000000000000007bffffffffffffffffffffffffffffffffffffffffffffffffffffffff1916827bffffffffffffffffffffffffffffffffffffffffffffffffffffffff1916149050919050565b60008073ffffffffffffffffffffffffffffffffffffffff166002600084815260200190815260200160002060009054906101000a900473ffffffffffffffffffffffffffffffffffffffff1673ffffffffffffffffffffffffffffffffffffffff1614159050919050565b600033905090565b816004600083815260200190815260200160002060006101000a81548173ffffffffffffffffffffffffffffffffffffffff021916908373ffffffffffffffffffffffffffffffffffffffff160217905550808273ffffffffffffffffffffffffffffffffffffffff1661109b83610847565b73ffffffffffffffffffffffffffffffffffffffff167f8c5be1e5ebec7d5bd14f71427d1e84f3dd0314c0f7b2291e5b200ac8c7c3b92560405160405180910390a45050565b60006110ec82610fb4565b61112b576040517f08c379a00000000000000000000000000000000000000000000000000000000081526004016111229061277f565b60405180910390fd5b600061113683610847565b90508073ffffffffffffffffffffffffffffffffffffffff168473ffffffffffffffffffffffffffffffffffffffff1614806111a557508373ffffffffffffffffffffffffffffffffffffffff1661118d846105fb565b73ffffffffffffffffffffffffffffffffffffffff16145b806111b657506111b58185610dbe565b5b91505092915050565b8273ffffffffffffffffffffffffffffffffffffffff166111df82610847565b73ffffffffffffffffffffffffffffffffffffffff1614611235576040517f08c379a000000000000000000000000000000000000000000000000000000000815260040161122c90612811565b60405180910390fd5b600073ffffffffffffffffffffffffffffffffffffffff168273ffffffffffffffffffffffffffffffffffffffff1614156112a5576040517f08c379a000000000000000000000000000000000000000000000000000000000815260040161129c906128a3565b60405180910390fd5b6112b08383836116d3565b6112bb600082611028565b6001600360008573ffffffffffffffffffffffffffffffffffffffff1673ffffffffffffffffffffffffffffffffffffffff168152602001908152602001600020600082825461130b91906128c3565b925050819055506001600360008473ffffffffffffffffffffffffffffffffffffffff1673ffffffffffffffffffffffffffffffffffffffff16815260200190815260200160002060008282546113629190612337565b92505081905550816002600083815260200190815260200160002060006101000a81548173ffffffffffffffffffffffffffffffffffffffff021916908373ffffffffffffffffffffffffffffffffffffffff160217905550808273ffffffffffffffffffffffffffffffffffffffff168473ffffffffffffffffffffffffffffffffffffffff167fddf252ad1be2c89b69c2b068fc378daa952ba7f163c4a11628f55a4df523b3ef60405160405180910390a4505050565b6114358282604051806020016040528060008152506116d8565b5050565b6000600660009054906101000a900473ffffffffffffffffffffffffffffffffffffffff16905081600660006101000a81548173ffffffffffffffffffffffffffffffffffffffff021916908373ffffffffffffffffffffffffffffffffffffffff1602179055508173ffffffffffffffffffffffffffffffffffffffff168173ffffffffffffffffffffffffffffffffffffffff167f8be0079c531659141344cd1fd0a4f28419497f9722a3daafe3b4186f6b6457e060405160405180910390a35050565b61150a8484846111bf565b61151684848484611733565b611555576040517f08c379a000000000000000000000000000000000000000000000000000000000815260040161154c90612969565b60405180910390fd5b50505050565b606060405180602001604052806000815250905090565b606060008214156115ba576040518060400160405280600181526020017f300000000000000000000000000000000000000000000000000000000000000081525090506116ce565b600082905060005b600082146115ec5780806115d590612989565b915050600a826115e59190612a01565b91506115c2565b60008167ffffffffffffffff81111561160857611607611e71565b5b6040519080825280601f01601f19166020018201604052801561163a5781602001600182028036833780820191505090505b5090505b600085146116c75760018261165391906128c3565b9150600a856116629190612a32565b603061166e9190612337565b60f81b81838151811061168457611683612a63565b5b60200101907effffffffffffffffffffffffffffffffffffffffffffffffffffffffffffff1916908160001a905350600a856116c09190612a01565b945061163e565b8093505050505b919050565b505050565b6116e283836118bb565b6116ef6000848484611733565b61172e576040517f08c379a000000000000000000000000000000000000000000000000000000000815260040161172590612969565b60405180910390fd5b505050565b60006117548473ffffffffffffffffffffffffffffffffffffffff16611a89565b156118ae578373ffffffffffffffffffffffffffffffffffffffff1663150b7a0261177d611020565b8786866040518563ffffffff1660e01b815260040161179f9493929190612ae7565b6020604051808303816000875af19250505080156117db57506040513d601f19601f820116820180604052508101906117d89190612b48565b60015b61185e573d806000811461180b576040519150601f19603f3d011682016040523d82523d6000602084013e611810565b606091505b50600081511415611856576040517f08c379a000000000000000000000000000000000000000000000000000000000815260040161184d90612969565b60405180910390fd5b805181602001fd5b63150b7a0260e01b7bffffffffffffffffffffffffffffffffffffffffffffffffffffffff1916817bffffffffffffffffffffffffffffffffffffffffffffffffffffffff1916149150506118b3565b600190505b949350505050565b600073ffffffffffffffffffffffffffffffffffffffff168273ffffffffffffffffffffffffffffffffffffffff16141561192b576040517f08c379a000000000000000000000000000000000000000000000000000000000815260040161192290612bc1565b60405180910390fd5b61193481610fb4565b15611974576040517f08c379a000000000000000000000000000000000000000000000000000000000815260040161196b90612c2d565b60405180910390fd5b611980600083836116d3565b6001600360008473ffffffffffffffffffffffffffffffffffffffff1673ffffffffffffffffffffffffffffffffffffffff16815260200190815260200160002060008282546119d09190612337565b92505081905550816002600083815260200190815260200160002060006101000a81548173ffffffffffffffffffffffffffffffffffffffff021916908373ffffffffffffffffffffffffffffffffffffffff160217905550808273ffffffffffffffffffffffffffffffffffffffff16600073ffffffffffffffffffffffffffffffffffffffff167fddf252ad1be2c89b69c2b068fc378daa952ba7f163c4a11628f55a4df523b3ef60405160405180910390a45050565b600080823b905060008111915050919050565b6000604051905090565b600080fd5b600080fd5b60007fffffffff0000000000000000000000000000000000000000000000000000000082169050919050565b611ae581611ab0565b8114611af057600080fd5b50565b600081359050611b0281611adc565b92915050565b600060208284031215611b1e57611b1d611aa6565b5b6000611b2c84828501611af3565b91505092915050565b60008115159050919050565b611b4a81611b35565b82525050565b6000602082019050611b656000830184611b41565b92915050565b600081519050919050565b600082825260208201905092915050565b60005b83811015611ba5578082015181840152602081019050611b8a565b83811115611bb4576000848401525b50505050565b6000601f19601f8301169050919050565b6000611bd682611b6b565b611be08185611b76565b9350611bf0818560208601611b87565b611bf981611bba565b840191505092915050565b60006020820190508181036000830152611c1e8184611bcb565b905092915050565b6000819050919050565b611c3981611c26565b8114611c4457600080fd5b50565b600081359050611c5681611c30565b92915050565b600060208284031215611c7257611c71611aa6565b5b6000611c8084828501611c47565b91505092915050565b600073ffffffffffffffffffffffffffffffffffffffff82169050919050565b6000611cb482611c89565b9050919050565b611cc481611ca9565b82525050565b6000602082019050611cdf6000830184611cbb565b92915050565b611cee81611ca9565b8114611cf957600080fd5b50565b600081359050611d0b81611ce5565b92915050565b60008060408385031215611d2857611d27611aa6565b5b6000611d3685828601611cfc565b9250506020611d4785828601611c47565b9150509250929050565b600080600060608486031215611d6a57611d69611aa6565b5b6000611d7886828701611cfc565b9350506020611d8986828701611cfc565b9250506040611d9a86828701611c47565b9150509250925092565b600060208284031215611dba57611db9611aa6565b5b6000611dc884828501611cfc565b91505092915050565b611dda81611c26565b82525050565b6000602082019050611df56000830184611dd1565b92915050565b611e0481611b35565b8114611e0f57600080fd5b50565b600081359050611e2181611dfb565b92915050565b60008060408385031215611e3e57611e3d611aa6565b5b6000611e4c85828601611cfc565b9250506020611e5d85828601611e12565b9150509250929050565b600080fd5b600080fd5b7f4e487b7100000000000000000000000000000000000000000000000000000000600052604160045260246000fd5b611ea982611bba565b810181811067ffffffffffffffff82111715611ec857611ec7611e71565b5b80604052505050565b6000611edb611a9c565b9050611ee78282611ea0565b919050565b600067ffffffffffffffff821115611f0757611f06611e71565b5b611f1082611bba565b9050602081019050919050565b82818337600083830152505050565b6000611f3f611f3a84611eec565b611ed1565b905082815260208101848484011115611f5b57611f5a611e6c565b5b611f66848285611f1d565b509392505050565b600082601f830112611f8357611f82611e67565b5b8135611f93848260208601611f2c565b91505092915050565b60008060008060808587031215611fb657611fb5611aa6565b5b6000611fc487828801611cfc565b9450506020611fd587828801611cfc565b9350506040611fe687828801611c47565b925050606085013567ffffffffffffffff81111561200757612006611aab565b5b61201387828801611f6e565b91505092959194509250565b6000806040838503121561203657612035611aa6565b5b600061204485828601611cfc565b925050602061205585828601611cfc565b9150509250929050565b7f4e487b7100000000000000000000000000000000000000000000000000000000600052602260045260246000fd5b600060028204905060018216806120a657607f821691505b602082108114156120ba576120b961205f565b5b50919050565b7f4552433732313a20617070726f76656420717565727920666f72206e6f6e657860008201527f697374656e7420746f6b656e0000000000000000000000000000000000000000602082015250565b600061211c602c83611b76565b9150612127826120c0565b604082019050919050565b6000602082019050818103600083015261214b8161210f565b9050919050565b7f4552433732313a20617070726f76616c20746f2063757272656e74206f776e6560008201527f7200000000000000000000000000000000000000000000000000000000000000602082015250565b60006121ae602183611b76565b91506121b982612152565b604082019050919050565b600060208201905081810360008301526121dd816121a1565b9050919050565b7f4552433732313a20617070726f76652063616c6c6572206973206e6f74206f7760008201527f6e6572206e6f7220617070726f76656420666f7220616c6c0000000000000000602082015250565b6000612240603883611b76565b915061224b826121e4565b604082019050919050565b6000602082019050818103600083015261226f81612233565b9050919050565b7f4552433732313a207472616e736665722063616c6c6572206973206e6f74206f60008201527f776e6572206e6f7220617070726f766564000000000000000000000000000000602082015250565b60006122d2603183611b76565b91506122dd82612276565b604082019050919050565b60006020820190508181036000830152612301816122c5565b9050919050565b7f4e487b7100000000000000000000000000000000000000000000000000000000600052601160045260246000fd5b600061234282611c26565b915061234d83611c26565b9250827fffffffffffffffffffffffffffffffffffffffffffffffffffffffffffffffff0382111561238257612381612308565b5b828201905092915050565b7f4552433732313a206f776e657220717565727920666f72206e6f6e657869737460008201527f656e7420746f6b656e0000000000000000000000000000000000000000000000602082015250565b60006123e9602983611b76565b91506123f48261238d565b604082019050919050565b60006020820190508181036000830152612418816123dc565b9050919050565b7f4552433732313a2062616c616e636520717565727920666f7220746865207a6560008201527f726f206164647265737300000000000000000000000000000000000000000000602082015250565b600061247b602a83611b76565b91506124868261241f565b604082019050919050565b600060208201905081810360008301526124aa8161246e565b9050919050565b7f4f776e61626c653a2063616c6c6572206973206e6f7420746865206f776e6572600082015250565b60006124e7602083611b76565b91506124f2826124b1565b602082019050919050565b60006020820190508181036000830152612516816124da565b9050919050565b7f4552433732313a20617070726f766520746f2063616c6c657200000000000000600082015250565b6000612553601983611b76565b915061255e8261251d565b602082019050919050565b6000602082019050818103600083015261258281612546565b9050919050565b7f4552433732314d657461646174613a2055524920717565727920666f72206e6f60008201527f6e6578697374656e7420746f6b656e0000000000000000000000000000000000602082015250565b60006125e5602f83611b76565b91506125f082612589565b604082019050919050565b60006020820190508181036000830152612614816125d8565b9050919050565b600081905092915050565b600061263182611b6b565b61263b818561261b565b935061264b818560208601611b87565b80840191505092915050565b60006126638285612626565b915061266f8284612626565b91508190509392505050565b7f4f776e61626c653a206e6577206f776e657220697320746865207a65726f206160008201527f6464726573730000000000000000000000000000000000000000000000000000602082015250565b60006126d7602683611b76565b91506126e28261267b565b604082019050919050565b60006020820190508181036000830152612706816126ca565b9050919050565b7f4552433732313a206f70657261746f7220717565727920666f72206e6f6e657860008201527f697374656e7420746f6b656e0000000000000000000000000000000000000000602082015250565b6000612769602c83611b76565b91506127748261270d565b604082019050919050565b600060208201905081810360008301526127988161275c565b9050919050565b7f4552433732313a207472616e73666572206f6620746f6b656e2074686174206960008201527f73206e6f74206f776e0000000000000000000000000000000000000000000000602082015250565b60006127fb602983611b76565b91506128068261279f565b604082019050919050565b6000602082019050818103600083015261282a816127ee565b9050919050565b7f4552433732313a207472616e7366657220746f20746865207a65726f2061646460008201527f7265737300000000000000000000000000000000000000000000000000000000602082015250565b600061288d602483611b76565b915061289882612831565b604082019050919050565b600060208201905081810360008301526128bc81612880565b9050919050565b60006128ce82611c26565b91506128d983611c26565b9250828210156128ec576128eb612308565b5b828203905092915050565b7f4552433732313a207472616e7366657220746f206e6f6e20455243373231526560008201527f63656976657220696d706c656d656e7465720000000000000000000000000000602082015250565b6000612953603283611b76565b915061295e826128f7565b604082019050919050565b6000602082019050818103600083015261298281612946565b9050919050565b600061299482611c26565b91507fffffffffffffffffffffffffffffffffffffffffffffffffffffffffffffffff8214156129c7576129c6612308565b5b600182019050919050565b7f4e487b7100000000000000000000000000000000000000000000000000000000600052601260045260246000fd5b6000612a0c82611c26565b9150612a1783611c26565b925082612a2757612a266129d2565b5b828204905092915050565b6000612a3d82611c26565b9150612a4883611c26565b925082612a5857612a576129d2565b5b828206905092915050565b7f4e487b7100000000000000000000000000000000000000000000000000000000600052603260045260246000fd5b600081519050919050565b600082825260208201905092915050565b6000612ab982612a92565b612ac38185612a9d565b9350612ad3818560208601611b87565b612adc81611bba565b840191505092915050565b6000608082019050612afc6000830187611cbb565b612b096020830186611cbb565b612b166040830185611dd1565b8181036060830152612b288184612aae565b905095945050505050565b600081519050612b4281611adc565b92915050565b600060208284031215612b5e57612b5d611aa6565b5b6000612b6c84828501612b33565b91505092915050565b7f4552433732313a206d696e7420746f20746865207a65726f2061646472657373600082015250565b6000612bab602083611b76565b9150612bb682612b75565b602082019050919050565b60006020820190508181036000830152612bda81612b9e565b9050919050565b7f4552433732313a20746f6b656e20616c7265616479206d696e74656400000000600082015250565b6000612c17601c83611b76565b9150612c2282612be1565b602082019050919050565b60006020820190508181036000830152612c4681612c0a565b905091905056fea2646970667358221220ab4da95dbdc67de3a2b0c72d87b8ac63a091207161f1ccbe29e58fcd5310dc8d64736f6c634300080a0033",
  "immutableReferences": {},
  "source": "// SPDX-License-Identifier: MIT\npragma solidity ^0.8.0;\n\nimport \"@openzeppelin/contracts/token/ERC721/ERC721.sol\";\nimport \"@openzeppelin/contracts/access/Ownable.sol\";\n\ncontract AutoMint is ERC721, Ownable {\n\n    ///bytes32 tokenId;\n    uint256 tokenCounter;\n    uint256 public constant carPrice = 2 ether;\n\n    mapping(uint256 => address) public requestIdToSender;\n    ///mapping(uint256 => string) public requestIdToTokenURI;\n    ///mapping(uint256 => uint256) public requestIdToTokenId;\n    ///event purchasedAuto(bytes32 indexed carId);\n\n    constructor() ERC721 (\"AutoMint\", \"AUT\") {\n        tokenCounter = 0;\n    }\n \n    ///function tokenURI(uint256 _tokenId) public view virtual override returns (string memory) {\n    ///   return string(abi.encodePacked(super.tokenURI(_tokenId),\".json\"));\n    ///}\n\n    ///function createAuto(uint256 carId) public {\n       /// requestIdToSender[carId] = msg.sender;\n        ///requestIdToTokenURI[carId] = tokenURI;\n        ///emit purchasedAuto(carId);\n\n   /// }\n\n    function mintCar() public payable {\n        ///require(carPrice <= msg.value);\n        ///address carOwner = requestIdToSender[carId];\n        ///string memory tokenURI = requestIdToTokenURI;\n        uint256 newItemId = tokenCounter;\n        _safeMint(msg.sender, newItemId);\n       /// _setTokenURI(newItemId, tokenURI);\n        ///requestIdToTokenId[carId] = newItemId;\n        tokenCounter += tokenCounter;\n        \n    }\n\n   /// function setTokenURI(uint256 _tokenId, string memory _tokenURI) public {\n    ///    require(\n    ///        _isApprovedOrOwner(_msgSender(), _tokenId),\n    ///        \"ERC721: transfer caller is not owner nor approved\"\n    ///    );\n    ///    _setTokenURI(_tokenId, _tokenURI);\n    ///}\n\n}",
  "sourcePath": "/Volumes/GoogleDrive/My Drive/Web Development/Projects/github/blockchain-developer-bootcamp-final-project/contracts/AutoMint.sol",
  "compiler": {
    "name": "solc",
    "version": "0.8.10+commit.fc410830.Emscripten.clang"
  },
  "schemaVersion": "3.4.3",
  "updatedAt": "2022-01-09T14:34:55.906Z",
  "devdoc": {
    "kind": "dev",
    "methods": {
      "approve(address,uint256)": {
        "details": "See {IERC721-approve}."
      },
      "balanceOf(address)": {
        "details": "See {IERC721-balanceOf}."
      },
      "getApproved(uint256)": {
        "details": "See {IERC721-getApproved}."
      },
      "isApprovedForAll(address,address)": {
        "details": "See {IERC721-isApprovedForAll}."
      },
      "name()": {
        "details": "See {IERC721Metadata-name}."
      },
      "owner()": {
        "details": "Returns the address of the current owner."
      },
      "ownerOf(uint256)": {
        "details": "See {IERC721-ownerOf}."
      },
      "renounceOwnership()": {
        "details": "Leaves the contract without owner. It will not be possible to call `onlyOwner` functions anymore. Can only be called by the current owner. NOTE: Renouncing ownership will leave the contract without an owner, thereby removing any functionality that is only available to the owner."
      },
      "safeTransferFrom(address,address,uint256)": {
        "details": "See {IERC721-safeTransferFrom}."
      },
      "safeTransferFrom(address,address,uint256,bytes)": {
        "details": "See {IERC721-safeTransferFrom}."
      },
      "setApprovalForAll(address,bool)": {
        "details": "See {IERC721-setApprovalForAll}."
      },
      "supportsInterface(bytes4)": {
        "details": "See {IERC165-supportsInterface}."
      },
      "symbol()": {
        "details": "See {IERC721Metadata-symbol}."
      },
      "tokenURI(uint256)": {
        "details": "See {IERC721Metadata-tokenURI}."
      },
      "transferFrom(address,address,uint256)": {
        "details": "See {IERC721-transferFrom}."
      },
      "transferOwnership(address)": {
        "details": "Transfers ownership of the contract to a new account (`newOwner`). Can only be called by the current owner."
      }
    },
    "version": 1
  },
  "userdoc": {
    "kind": "user",
    "methods": {
      "constructor": {
        "notice": "mapping(uint256 => string) public requestIdToTokenURI; mapping(uint256 => uint256) public requestIdToTokenId; event purchasedAuto(bytes32 indexed carId);"
      },
      "mintCar()": {
        "notice": "}"
      }
    },
    "version": 1
  }
}