{
  "contractName": "newCar",
  "abi": [
    {
      "inputs": [],
      "stateMutability": "nonpayable",
      "type": "constructor"
    },
    {
      "anonymous": false,
      "inputs": [
        {
          "indexed": true,
          "internalType": "address",
          "name": "owner",
          "type": "address"
        },
        {
          "indexed": true,
          "internalType": "address",
          "name": "approved",
          "type": "address"
        },
        {
          "indexed": true,
          "internalType": "uint256",
          "name": "tokenId",
          "type": "uint256"
        }
      ],
      "name": "Approval",
      "type": "event"
    },
    {
      "anonymous": false,
      "inputs": [
        {
          "indexed": true,
          "internalType": "address",
          "name": "owner",
          "type": "address"
        },
        {
          "indexed": true,
          "internalType": "address",
          "name": "operator",
          "type": "address"
        },
        {
          "indexed": false,
          "internalType": "bool",
          "name": "approved",
          "type": "bool"
        }
      ],
      "name": "ApprovalForAll",
      "type": "event"
    },
    {
      "anonymous": false,
      "inputs": [
        {
          "indexed": true,
          "internalType": "address",
          "name": "previousOwner",
          "type": "address"
        },
        {
          "indexed": true,
          "internalType": "address",
          "name": "newOwner",
          "type": "address"
        }
      ],
      "name": "OwnershipTransferred",
      "type": "event"
    },
    {
      "anonymous": false,
      "inputs": [
        {
          "indexed": true,
          "internalType": "address",
          "name": "from",
          "type": "address"
        },
        {
          "indexed": true,
          "internalType": "address",
          "name": "to",
          "type": "address"
        },
        {
          "indexed": true,
          "internalType": "uint256",
          "name": "tokenId",
          "type": "uint256"
        }
      ],
      "name": "Transfer",
      "type": "event"
    },
    {
      "anonymous": false,
      "inputs": [
        {
          "indexed": false,
          "internalType": "uint256",
          "name": "tokenId",
          "type": "uint256"
        }
      ],
      "name": "newMint",
      "type": "event"
    },
    {
      "inputs": [
        {
          "internalType": "address",
          "name": "to",
          "type": "address"
        },
        {
          "internalType": "uint256",
          "name": "tokenId",
          "type": "uint256"
        }
      ],
      "name": "approve",
      "outputs": [],
      "stateMutability": "nonpayable",
      "type": "function"
    },
    {
      "inputs": [
        {
          "internalType": "address",
          "name": "owner",
          "type": "address"
        }
      ],
      "name": "balanceOf",
      "outputs": [
        {
          "internalType": "uint256",
          "name": "",
          "type": "uint256"
        }
      ],
      "stateMutability": "view",
      "type": "function",
      "constant": true
    },
    {
      "inputs": [
        {
          "internalType": "uint256",
          "name": "tokenId",
          "type": "uint256"
        }
      ],
      "name": "getApproved",
      "outputs": [
        {
          "internalType": "address",
          "name": "",
          "type": "address"
        }
      ],
      "stateMutability": "view",
      "type": "function",
      "constant": true
    },
    {
      "inputs": [
        {
          "internalType": "address",
          "name": "owner",
          "type": "address"
        },
        {
          "internalType": "address",
          "name": "operator",
          "type": "address"
        }
      ],
      "name": "isApprovedForAll",
      "outputs": [
        {
          "internalType": "bool",
          "name": "",
          "type": "bool"
        }
      ],
      "stateMutability": "view",
      "type": "function",
      "constant": true
    },
    {
      "inputs": [],
      "name": "name",
      "outputs": [
        {
          "internalType": "string",
          "name": "",
          "type": "string"
        }
      ],
      "stateMutability": "view",
      "type": "function",
      "constant": true
    },
    {
      "inputs": [],
      "name": "newCarPrice",
      "outputs": [
        {
          "internalType": "uint256",
          "name": "",
          "type": "uint256"
        }
      ],
      "stateMutability": "view",
      "type": "function",
      "constant": true
    },
    {
      "inputs": [],
      "name": "owner",
      "outputs": [
        {
          "internalType": "address",
          "name": "",
          "type": "address"
        }
      ],
      "stateMutability": "view",
      "type": "function",
      "constant": true
    },
    {
      "inputs": [
        {
          "internalType": "uint256",
          "name": "tokenId",
          "type": "uint256"
        }
      ],
      "name": "ownerOf",
      "outputs": [
        {
          "internalType": "address",
          "name": "",
          "type": "address"
        }
      ],
      "stateMutability": "view",
      "type": "function",
      "constant": true
    },
    {
      "inputs": [],
      "name": "renounceOwnership",
      "outputs": [],
      "stateMutability": "nonpayable",
      "type": "function"
    },
    {
      "inputs": [
        {
          "internalType": "address",
          "name": "from",
          "type": "address"
        },
        {
          "internalType": "address",
          "name": "to",
          "type": "address"
        },
        {
          "internalType": "uint256",
          "name": "tokenId",
          "type": "uint256"
        }
      ],
      "name": "safeTransferFrom",
      "outputs": [],
      "stateMutability": "nonpayable",
      "type": "function"
    },
    {
      "inputs": [
        {
          "internalType": "address",
          "name": "from",
          "type": "address"
        },
        {
          "internalType": "address",
          "name": "to",
          "type": "address"
        },
        {
          "internalType": "uint256",
          "name": "tokenId",
          "type": "uint256"
        },
        {
          "internalType": "bytes",
          "name": "_data",
          "type": "bytes"
        }
      ],
      "name": "safeTransferFrom",
      "outputs": [],
      "stateMutability": "nonpayable",
      "type": "function"
    },
    {
      "inputs": [
        {
          "internalType": "address",
          "name": "operator",
          "type": "address"
        },
        {
          "internalType": "bool",
          "name": "approved",
          "type": "bool"
        }
      ],
      "name": "setApprovalForAll",
      "outputs": [],
      "stateMutability": "nonpayable",
      "type": "function"
    },
    {
      "inputs": [],
      "name": "symbol",
      "outputs": [
        {
          "internalType": "string",
          "name": "",
          "type": "string"
        }
      ],
      "stateMutability": "view",
      "type": "function",
      "constant": true
    },
    {
      "inputs": [
        {
          "internalType": "uint256",
          "name": "index",
          "type": "uint256"
        }
      ],
      "name": "tokenByIndex",
      "outputs": [
        {
          "internalType": "uint256",
          "name": "",
          "type": "uint256"
        }
      ],
      "stateMutability": "view",
      "type": "function",
      "constant": true
    },
    {
      "inputs": [],
      "name": "tokenCounter",
      "outputs": [
        {
          "internalType": "uint256",
          "name": "",
          "type": "uint256"
        }
      ],
      "stateMutability": "view",
      "type": "function",
      "constant": true
    },
    {
      "inputs": [
        {
          "internalType": "address",
          "name": "owner",
          "type": "address"
        },
        {
          "internalType": "uint256",
          "name": "index",
          "type": "uint256"
        }
      ],
      "name": "tokenOfOwnerByIndex",
      "outputs": [
        {
          "internalType": "uint256",
          "name": "",
          "type": "uint256"
        }
      ],
      "stateMutability": "view",
      "type": "function",
      "constant": true
    },
    {
      "inputs": [
        {
          "internalType": "uint256",
          "name": "tokenId",
          "type": "uint256"
        }
      ],
      "name": "tokenURI",
      "outputs": [
        {
          "internalType": "string",
          "name": "",
          "type": "string"
        }
      ],
      "stateMutability": "view",
      "type": "function",
      "constant": true
    },
    {
      "inputs": [],
      "name": "totalSupply",
      "outputs": [
        {
          "internalType": "uint256",
          "name": "",
          "type": "uint256"
        }
      ],
      "stateMutability": "view",
      "type": "function",
      "constant": true
    },
    {
      "inputs": [
        {
          "internalType": "address",
          "name": "from",
          "type": "address"
        },
        {
          "internalType": "address",
          "name": "to",
          "type": "address"
        },
        {
          "internalType": "uint256",
          "name": "tokenId",
          "type": "uint256"
        }
      ],
      "name": "transferFrom",
      "outputs": [],
      "stateMutability": "nonpayable",
      "type": "function"
    },
    {
      "inputs": [
        {
          "internalType": "address",
          "name": "newOwner",
          "type": "address"
        }
      ],
      "name": "transferOwnership",
      "outputs": [],
      "stateMutability": "nonpayable",
      "type": "function"
    },
    {
      "inputs": [
        {
          "internalType": "bytes4",
          "name": "interfaceId",
          "type": "bytes4"
        }
      ],
      "name": "supportsInterface",
      "outputs": [
        {
          "internalType": "bool",
          "name": "",
          "type": "bool"
        }
      ],
      "stateMutability": "view",
      "type": "function",
      "constant": true
    },
    {
      "inputs": [
        {
          "internalType": "address",
          "name": "carBuyer",
          "type": "address"
        }
      ],
      "name": "mintCar",
      "outputs": [],
      "stateMutability": "payable",
      "type": "function",
      "payable": true
    },
    {
      "inputs": [
        {
          "internalType": "address",
          "name": "newOwner",
          "type": "address"
        },
        {
          "internalType": "uint256",
          "name": "tokenId",
          "type": "uint256"
        }
      ],
      "name": "transferCar",
      "outputs": [],
      "stateMutability": "payable",
      "type": "function",
      "payable": true
    },
    {
      "inputs": [],
      "name": "getCarPrice",
      "outputs": [
        {
          "internalType": "uint256",
          "name": "",
          "type": "uint256"
        }
      ],
      "stateMutability": "view",
      "type": "function",
      "constant": true
    },
    {
      "inputs": [
        {
          "internalType": "uint256",
          "name": "carPrice",
          "type": "uint256"
        }
      ],
      "name": "setCarPrice",
      "outputs": [],
      "stateMutability": "nonpayable",
      "type": "function"
    }
  ],
  "bytecode": "0x60806040523480156200001157600080fd5b506040518060400160405280600681526020017f6e657743617200000000000000000000000000000000000000000000000000008152506040518060400160405280600381526020017f4e4352000000000000000000000000000000000000000000000000000000000081525081600090805190602001906200009692919062000289565b508060019080519060200190620000af92919062000289565b505050620000d2620000c6620000f860201b60201c565b6200010060201b60201c565b6000600b81905550620000f266470de4df820000620001c660201b60201c565b62000421565b600033905090565b6000600a60009054906101000a900473ffffffffffffffffffffffffffffffffffffffff16905081600a60006101000a81548173ffffffffffffffffffffffffffffffffffffffff021916908373ffffffffffffffffffffffffffffffffffffffff1602179055508173ffffffffffffffffffffffffffffffffffffffff168173ffffffffffffffffffffffffffffffffffffffff167f8be0079c531659141344cd1fd0a4f28419497f9722a3daafe3b4186f6b6457e060405160405180910390a35050565b620001d6620000f860201b60201c565b73ffffffffffffffffffffffffffffffffffffffff16620001fc6200025f60201b60201c565b73ffffffffffffffffffffffffffffffffffffffff161462000255576040517f08c379a00000000000000000000000000000000000000000000000000000000081526004016200024c906200039a565b60405180910390fd5b80600c8190555050565b6000600a60009054906101000a900473ffffffffffffffffffffffffffffffffffffffff16905090565b8280546200029790620003eb565b90600052602060002090601f016020900481019282620002bb576000855562000307565b82601f10620002d657805160ff191683800117855562000307565b8280016001018555821562000307579182015b8281111562000306578251825591602001919060010190620002e9565b5b5090506200031691906200031a565b5090565b5b80821115620003355760008160009055506001016200031b565b5090565b600082825260208201905092915050565b7f4f776e61626c653a2063616c6c6572206973206e6f7420746865206f776e6572600082015250565b60006200038260208362000339565b91506200038f826200034a565b602082019050919050565b60006020820190508181036000830152620003b58162000373565b9050919050565b7f4e487b7100000000000000000000000000000000000000000000000000000000600052602260045260246000fd5b600060028204905060018216806200040457607f821691505b602082108114156200041b576200041a620003bc565b5b50919050565b6135b480620004316000396000f3fe6080604052600436106101665760003560e01c8063715018a6116100d1578063c87b56dd1161008a578063dd5aaf5511610064578063dd5aaf5514610543578063e985e9c51461056c578063f2fde38b146105a9578063feb69128146105d257610166565b8063c87b56dd146104b0578063d082e381146104ed578063d5f299ed1461051857610166565b8063715018a6146103d55780638da5cb5b146103ec57806395d89b4114610417578063a22cb46514610442578063b88d4fde1461046b578063bed41b1b1461049457610166565b80632f745c59116101235780632f745c591461028d57806342842e0e146102ca5780634f6ccce7146102f35780635f644da9146103305780636352211e1461035b57806370a082311461039857610166565b806301ffc9a71461016b57806306fdde03146101a8578063081812fc146101d3578063095ea7b31461021057806318160ddd1461023957806323b872dd14610264575b600080fd5b34801561017757600080fd5b50610192600480360381019061018d91906122e6565b6105ee565b60405161019f919061232e565b60405180910390f35b3480156101b457600080fd5b506101bd610600565b6040516101ca91906123e2565b60405180910390f35b3480156101df57600080fd5b506101fa60048036038101906101f5919061243a565b610692565b60405161020791906124a8565b60405180910390f35b34801561021c57600080fd5b50610237600480360381019061023291906124ef565b610717565b005b34801561024557600080fd5b5061024e61082f565b60405161025b919061253e565b60405180910390f35b34801561027057600080fd5b5061028b60048036038101906102869190612559565b61083c565b005b34801561029957600080fd5b506102b460048036038101906102af91906124ef565b61089c565b6040516102c1919061253e565b60405180910390f35b3480156102d657600080fd5b506102f160048036038101906102ec9190612559565b610941565b005b3480156102ff57600080fd5b5061031a6004803603810190610315919061243a565b610961565b604051610327919061253e565b60405180910390f35b34801561033c57600080fd5b506103456109d2565b604051610352919061253e565b60405180910390f35b34801561036757600080fd5b50610382600480360381019061037d919061243a565b6109dc565b60405161038f91906124a8565b60405180910390f35b3480156103a457600080fd5b506103bf60048036038101906103ba91906125ac565b610a8e565b6040516103cc919061253e565b60405180910390f35b3480156103e157600080fd5b506103ea610b46565b005b3480156103f857600080fd5b50610401610bce565b60405161040e91906124a8565b60405180910390f35b34801561042357600080fd5b5061042c610bf8565b60405161043991906123e2565b60405180910390f35b34801561044e57600080fd5b5061046960048036038101906104649190612605565b610c8a565b005b34801561047757600080fd5b50610492600480360381019061048d919061277a565b610e0b565b005b6104ae60048036038101906104a991906125ac565b610e6d565b005b3480156104bc57600080fd5b506104d760048036038101906104d2919061243a565b610ece565b6040516104e491906123e2565b60405180910390f35b3480156104f957600080fd5b50610502610f75565b60405161050f919061253e565b60405180910390f35b34801561052457600080fd5b5061052d610f7b565b60405161053a919061253e565b60405180910390f35b34801561054f57600080fd5b5061056a6004803603810190610565919061243a565b610f81565b005b34801561057857600080fd5b50610593600480360381019061058e91906127fd565b611007565b6040516105a0919061232e565b60405180910390f35b3480156105b557600080fd5b506105d060048036038101906105cb91906125ac565b61109b565b005b6105ec60048036038101906105e791906124ef565b611193565b005b60006105f9826111a2565b9050919050565b60606000805461060f9061286c565b80601f016020809104026020016040519081016040528092919081815260200182805461063b9061286c565b80156106885780601f1061065d57610100808354040283529160200191610688565b820191906000526020600020905b81548152906001019060200180831161066b57829003601f168201915b5050505050905090565b600061069d8261121c565b6106dc576040517f08c379a00000000000000000000000000000000000000000000000000000000081526004016106d390612910565b60405180910390fd5b6004600083815260200190815260200160002060009054906101000a900473ffffffffffffffffffffffffffffffffffffffff169050919050565b6000610722826109dc565b90508073ffffffffffffffffffffffffffffffffffffffff168373ffffffffffffffffffffffffffffffffffffffff161415610793576040517f08c379a000000000000000000000000000000000000000000000000000000000815260040161078a906129a2565b60405180910390fd5b8073ffffffffffffffffffffffffffffffffffffffff166107b2611288565b73ffffffffffffffffffffffffffffffffffffffff1614806107e157506107e0816107db611288565b611007565b5b610820576040517f08c379a000000000000000000000000000000000000000000000000000000000815260040161081790612a34565b60405180910390fd5b61082a8383611290565b505050565b6000600880549050905090565b61084d610847611288565b82611349565b61088c576040517f08c379a000000000000000000000000000000000000000000000000000000000815260040161088390612ac6565b60405180910390fd5b610897838383611427565b505050565b60006108a783610a8e565b82106108e8576040517f08c379a00000000000000000000000000000000000000000000000000000000081526004016108df90612b58565b60405180910390fd5b600660008473ffffffffffffffffffffffffffffffffffffffff1673ffffffffffffffffffffffffffffffffffffffff168152602001908152602001600020600083815260200190815260200160002054905092915050565b61095c83838360405180602001604052806000815250610e0b565b505050565b600061096b61082f565b82106109ac576040517f08c379a00000000000000000000000000000000000000000000000000000000081526004016109a390612bea565b60405180910390fd5b600882815481106109c0576109bf612c0a565b5b90600052602060002001549050919050565b6000600c54905090565b6000806002600084815260200190815260200160002060009054906101000a900473ffffffffffffffffffffffffffffffffffffffff169050600073ffffffffffffffffffffffffffffffffffffffff168173ffffffffffffffffffffffffffffffffffffffff161415610a85576040517f08c379a0000000000000000000000000000000000000000000000000000000008152600401610a7c90612cab565b60405180910390fd5b80915050919050565b60008073ffffffffffffffffffffffffffffffffffffffff168273ffffffffffffffffffffffffffffffffffffffff161415610aff576040517f08c379a0000000000000000000000000000000000000000000000000000000008152600401610af690612d3d565b60405180910390fd5b600360008373ffffffffffffffffffffffffffffffffffffffff1673ffffffffffffffffffffffffffffffffffffffff168152602001908152602001600020549050919050565b610b4e611288565b73ffffffffffffffffffffffffffffffffffffffff16610b6c610bce565b73ffffffffffffffffffffffffffffffffffffffff1614610bc2576040517f08c379a0000000000000000000000000000000000000000000000000000000008152600401610bb990612da9565b60405180910390fd5b610bcc6000611683565b565b6000600a60009054906101000a900473ffffffffffffffffffffffffffffffffffffffff16905090565b606060018054610c079061286c565b80601f0160208091040260200160405190810160405280929190818152602001828054610c339061286c565b8015610c805780601f10610c5557610100808354040283529160200191610c80565b820191906000526020600020905b815481529060010190602001808311610c6357829003601f168201915b5050505050905090565b610c92611288565b73ffffffffffffffffffffffffffffffffffffffff168273ffffffffffffffffffffffffffffffffffffffff161415610d00576040517f08c379a0000000000000000000000000000000000000000000000000000000008152600401610cf790612e15565b60405180910390fd5b8060056000610d0d611288565b73ffffffffffffffffffffffffffffffffffffffff1673ffffffffffffffffffffffffffffffffffffffff16815260200190815260200160002060008473ffffffffffffffffffffffffffffffffffffffff1673ffffffffffffffffffffffffffffffffffffffff16815260200190815260200160002060006101000a81548160ff0219169083151502179055508173ffffffffffffffffffffffffffffffffffffffff16610dba611288565b73ffffffffffffffffffffffffffffffffffffffff167f17307eab39ab6107e8899845ad3d59bd9653f200f220920489ca2b5937696c3183604051610dff919061232e565b60405180910390a35050565b610e1c610e16611288565b83611349565b610e5b576040517f08c379a0000000000000000000000000000000000000000000000000000000008152600401610e5290612ac6565b60405180910390fd5b610e6784848484611749565b50505050565b6000600b549050610e7e82826117a5565b6001600b54610e8d9190612e64565b600b819055507faecc5f0f7b3fc75588acdbcf66be10ff96795b9ca17d9776f3a6246ca815def081604051610ec2919061253e565b60405180910390a15050565b6060610ed98261121c565b610f18576040517f08c379a0000000000000000000000000000000000000000000000000000000008152600401610f0f90612f2c565b60405180910390fd5b6000610f226117c3565b90506000815111610f425760405180602001604052806000815250610f6d565b80610f4c846117da565b604051602001610f5d929190612f88565b6040516020818303038152906040525b915050919050565b600b5481565b600c5481565b610f89611288565b73ffffffffffffffffffffffffffffffffffffffff16610fa7610bce565b73ffffffffffffffffffffffffffffffffffffffff1614610ffd576040517f08c379a0000000000000000000000000000000000000000000000000000000008152600401610ff490612da9565b60405180910390fd5b80600c8190555050565b6000600560008473ffffffffffffffffffffffffffffffffffffffff1673ffffffffffffffffffffffffffffffffffffffff16815260200190815260200160002060008373ffffffffffffffffffffffffffffffffffffffff1673ffffffffffffffffffffffffffffffffffffffff16815260200190815260200160002060009054906101000a900460ff16905092915050565b6110a3611288565b73ffffffffffffffffffffffffffffffffffffffff166110c1610bce565b73ffffffffffffffffffffffffffffffffffffffff1614611117576040517f08c379a000000000000000000000000000000000000000000000000000000000815260040161110e90612da9565b60405180910390fd5b600073ffffffffffffffffffffffffffffffffffffffff168173ffffffffffffffffffffffffffffffffffffffff161415611187576040517f08c379a000000000000000000000000000000000000000000000000000000000815260040161117e9061301e565b60405180910390fd5b61119081611683565b50565b61119e338383610941565b5050565b60007f780e9d63000000000000000000000000000000000000000000000000000000007bffffffffffffffffffffffffffffffffffffffffffffffffffffffff1916827bffffffffffffffffffffffffffffffffffffffffffffffffffffffff1916148061121557506112148261193b565b5b9050919050565b60008073ffffffffffffffffffffffffffffffffffffffff166002600084815260200190815260200160002060009054906101000a900473ffffffffffffffffffffffffffffffffffffffff1673ffffffffffffffffffffffffffffffffffffffff1614159050919050565b600033905090565b816004600083815260200190815260200160002060006101000a81548173ffffffffffffffffffffffffffffffffffffffff021916908373ffffffffffffffffffffffffffffffffffffffff160217905550808273ffffffffffffffffffffffffffffffffffffffff16611303836109dc565b73ffffffffffffffffffffffffffffffffffffffff167f8c5be1e5ebec7d5bd14f71427d1e84f3dd0314c0f7b2291e5b200ac8c7c3b92560405160405180910390a45050565b60006113548261121c565b611393576040517f08c379a000000000000000000000000000000000000000000000000000000000815260040161138a906130b0565b60405180910390fd5b600061139e836109dc565b90508073ffffffffffffffffffffffffffffffffffffffff168473ffffffffffffffffffffffffffffffffffffffff16148061140d57508373ffffffffffffffffffffffffffffffffffffffff166113f584610692565b73ffffffffffffffffffffffffffffffffffffffff16145b8061141e575061141d8185611007565b5b91505092915050565b8273ffffffffffffffffffffffffffffffffffffffff16611447826109dc565b73ffffffffffffffffffffffffffffffffffffffff161461149d576040517f08c379a000000000000000000000000000000000000000000000000000000000815260040161149490613142565b60405180910390fd5b600073ffffffffffffffffffffffffffffffffffffffff168273ffffffffffffffffffffffffffffffffffffffff16141561150d576040517f08c379a0000000000000000000000000000000000000000000000000000000008152600401611504906131d4565b60405180910390fd5b611518838383611a1d565b611523600082611290565b6001600360008573ffffffffffffffffffffffffffffffffffffffff1673ffffffffffffffffffffffffffffffffffffffff168152602001908152602001600020600082825461157391906131f4565b925050819055506001600360008473ffffffffffffffffffffffffffffffffffffffff1673ffffffffffffffffffffffffffffffffffffffff16815260200190815260200160002060008282546115ca9190612e64565b92505081905550816002600083815260200190815260200160002060006101000a81548173ffffffffffffffffffffffffffffffffffffffff021916908373ffffffffffffffffffffffffffffffffffffffff160217905550808273ffffffffffffffffffffffffffffffffffffffff168473ffffffffffffffffffffffffffffffffffffffff167fddf252ad1be2c89b69c2b068fc378daa952ba7f163c4a11628f55a4df523b3ef60405160405180910390a4505050565b6000600a60009054906101000a900473ffffffffffffffffffffffffffffffffffffffff16905081600a60006101000a81548173ffffffffffffffffffffffffffffffffffffffff021916908373ffffffffffffffffffffffffffffffffffffffff1602179055508173ffffffffffffffffffffffffffffffffffffffff168173ffffffffffffffffffffffffffffffffffffffff167f8be0079c531659141344cd1fd0a4f28419497f9722a3daafe3b4186f6b6457e060405160405180910390a35050565b611754848484611427565b61176084848484611a2d565b61179f576040517f08c379a00000000000000000000000000000000000000000000000000000000081526004016117969061329a565b60405180910390fd5b50505050565b6117bf828260405180602001604052806000815250611bb5565b5050565b606060405180602001604052806000815250905090565b60606000821415611822576040518060400160405280600181526020017f30000000000000000000000000000000000000000000000000000000000000008152509050611936565b600082905060005b6000821461185457808061183d906132ba565b915050600a8261184d9190613332565b915061182a565b60008167ffffffffffffffff8111156118705761186f61264f565b5b6040519080825280601f01601f1916602001820160405280156118a25781602001600182028036833780820191505090505b5090505b6000851461192f576001826118bb91906131f4565b9150600a856118ca9190613363565b60306118d69190612e64565b60f81b8183815181106118ec576118eb612c0a565b5b60200101907effffffffffffffffffffffffffffffffffffffffffffffffffffffffffffff1916908160001a905350600a856119289190613332565b94506118a6565b8093505050505b919050565b60007f80ac58cd000000000000000000000000000000000000000000000000000000007bffffffffffffffffffffffffffffffffffffffffffffffffffffffff1916827bffffffffffffffffffffffffffffffffffffffffffffffffffffffff19161480611a0657507f5b5e139f000000000000000000000000000000000000000000000000000000007bffffffffffffffffffffffffffffffffffffffffffffffffffffffff1916827bffffffffffffffffffffffffffffffffffffffffffffffffffffffff1916145b80611a165750611a1582611c10565b5b9050919050565b611a28838383611c7a565b505050565b6000611a4e8473ffffffffffffffffffffffffffffffffffffffff16611d8e565b15611ba8578373ffffffffffffffffffffffffffffffffffffffff1663150b7a02611a77611288565b8786866040518563ffffffff1660e01b8152600401611a9994939291906133e9565b6020604051808303816000875af1925050508015611ad557506040513d601f19601f82011682018060405250810190611ad2919061344a565b60015b611b58573d8060008114611b05576040519150601f19603f3d011682016040523d82523d6000602084013e611b0a565b606091505b50600081511415611b50576040517f08c379a0000000000000000000000000000000000000000000000000000000008152600401611b479061329a565b60405180910390fd5b805181602001fd5b63150b7a0260e01b7bffffffffffffffffffffffffffffffffffffffffffffffffffffffff1916817bffffffffffffffffffffffffffffffffffffffffffffffffffffffff191614915050611bad565b600190505b949350505050565b611bbf8383611da1565b611bcc6000848484611a2d565b611c0b576040517f08c379a0000000000000000000000000000000000000000000000000000000008152600401611c029061329a565b60405180910390fd5b505050565b60007f01ffc9a7000000000000000000000000000000000000000000000000000000007bffffffffffffffffffffffffffffffffffffffffffffffffffffffff1916827bffffffffffffffffffffffffffffffffffffffffffffffffffffffff1916149050919050565b611c85838383611f6f565b600073ffffffffffffffffffffffffffffffffffffffff168373ffffffffffffffffffffffffffffffffffffffff161415611cc857611cc381611f74565b611d07565b8173ffffffffffffffffffffffffffffffffffffffff168373ffffffffffffffffffffffffffffffffffffffff1614611d0657611d058382611fbd565b5b5b600073ffffffffffffffffffffffffffffffffffffffff168273ffffffffffffffffffffffffffffffffffffffff161415611d4a57611d458161212a565b611d89565b8273ffffffffffffffffffffffffffffffffffffffff168273ffffffffffffffffffffffffffffffffffffffff1614611d8857611d8782826121fb565b5b5b505050565b600080823b905060008111915050919050565b600073ffffffffffffffffffffffffffffffffffffffff168273ffffffffffffffffffffffffffffffffffffffff161415611e11576040517f08c379a0000000000000000000000000000000000000000000000000000000008152600401611e08906134c3565b60405180910390fd5b611e1a8161121c565b15611e5a576040517f08c379a0000000000000000000000000000000000000000000000000000000008152600401611e519061352f565b60405180910390fd5b611e6660008383611a1d565b6001600360008473ffffffffffffffffffffffffffffffffffffffff1673ffffffffffffffffffffffffffffffffffffffff1681526020019081526020016000206000828254611eb69190612e64565b92505081905550816002600083815260200190815260200160002060006101000a81548173ffffffffffffffffffffffffffffffffffffffff021916908373ffffffffffffffffffffffffffffffffffffffff160217905550808273ffffffffffffffffffffffffffffffffffffffff16600073ffffffffffffffffffffffffffffffffffffffff167fddf252ad1be2c89b69c2b068fc378daa952ba7f163c4a11628f55a4df523b3ef60405160405180910390a45050565b505050565b6008805490506009600083815260200190815260200160002081905550600881908060018154018082558091505060019003906000526020600020016000909190919091505550565b60006001611fca84610a8e565b611fd491906131f4565b90506000600760008481526020019081526020016000205490508181146120b9576000600660008673ffffffffffffffffffffffffffffffffffffffff1673ffffffffffffffffffffffffffffffffffffffff168152602001908152602001600020600084815260200190815260200160002054905080600660008773ffffffffffffffffffffffffffffffffffffffff1673ffffffffffffffffffffffffffffffffffffffff168152602001908152602001600020600084815260200190815260200160002081905550816007600083815260200190815260200160002081905550505b6007600084815260200190815260200160002060009055600660008573ffffffffffffffffffffffffffffffffffffffff1673ffffffffffffffffffffffffffffffffffffffff16815260200190815260200160002060008381526020019081526020016000206000905550505050565b6000600160088054905061213e91906131f4565b905060006009600084815260200190815260200160002054905060006008838154811061216e5761216d612c0a565b5b9060005260206000200154905080600883815481106121905761218f612c0a565b5b9060005260206000200181905550816009600083815260200190815260200160002081905550600960008581526020019081526020016000206000905560088054806121df576121de61354f565b5b6001900381819060005260206000200160009055905550505050565b600061220683610a8e565b905081600660008573ffffffffffffffffffffffffffffffffffffffff1673ffffffffffffffffffffffffffffffffffffffff168152602001908152602001600020600083815260200190815260200160002081905550806007600084815260200190815260200160002081905550505050565b6000604051905090565b600080fd5b600080fd5b60007fffffffff0000000000000000000000000000000000000000000000000000000082169050919050565b6122c38161228e565b81146122ce57600080fd5b50565b6000813590506122e0816122ba565b92915050565b6000602082840312156122fc576122fb612284565b5b600061230a848285016122d1565b91505092915050565b60008115159050919050565b61232881612313565b82525050565b6000602082019050612343600083018461231f565b92915050565b600081519050919050565b600082825260208201905092915050565b60005b83811015612383578082015181840152602081019050612368565b83811115612392576000848401525b50505050565b6000601f19601f8301169050919050565b60006123b482612349565b6123be8185612354565b93506123ce818560208601612365565b6123d781612398565b840191505092915050565b600060208201905081810360008301526123fc81846123a9565b905092915050565b6000819050919050565b61241781612404565b811461242257600080fd5b50565b6000813590506124348161240e565b92915050565b6000602082840312156124505761244f612284565b5b600061245e84828501612425565b91505092915050565b600073ffffffffffffffffffffffffffffffffffffffff82169050919050565b600061249282612467565b9050919050565b6124a281612487565b82525050565b60006020820190506124bd6000830184612499565b92915050565b6124cc81612487565b81146124d757600080fd5b50565b6000813590506124e9816124c3565b92915050565b6000806040838503121561250657612505612284565b5b6000612514858286016124da565b925050602061252585828601612425565b9150509250929050565b61253881612404565b82525050565b6000602082019050612553600083018461252f565b92915050565b60008060006060848603121561257257612571612284565b5b6000612580868287016124da565b9350506020612591868287016124da565b92505060406125a286828701612425565b9150509250925092565b6000602082840312156125c2576125c1612284565b5b60006125d0848285016124da565b91505092915050565b6125e281612313565b81146125ed57600080fd5b50565b6000813590506125ff816125d9565b92915050565b6000806040838503121561261c5761261b612284565b5b600061262a858286016124da565b925050602061263b858286016125f0565b9150509250929050565b600080fd5b600080fd5b7f4e487b7100000000000000000000000000000000000000000000000000000000600052604160045260246000fd5b61268782612398565b810181811067ffffffffffffffff821117156126a6576126a561264f565b5b80604052505050565b60006126b961227a565b90506126c5828261267e565b919050565b600067ffffffffffffffff8211156126e5576126e461264f565b5b6126ee82612398565b9050602081019050919050565b82818337600083830152505050565b600061271d612718846126ca565b6126af565b9050828152602081018484840111156127395761273861264a565b5b6127448482856126fb565b509392505050565b600082601f83011261276157612760612645565b5b813561277184826020860161270a565b91505092915050565b6000806000806080858703121561279457612793612284565b5b60006127a2878288016124da565b94505060206127b3878288016124da565b93505060406127c487828801612425565b925050606085013567ffffffffffffffff8111156127e5576127e4612289565b5b6127f18782880161274c565b91505092959194509250565b6000806040838503121561281457612813612284565b5b6000612822858286016124da565b9250506020612833858286016124da565b9150509250929050565b7f4e487b7100000000000000000000000000000000000000000000000000000000600052602260045260246000fd5b6000600282049050600182168061288457607f821691505b602082108114156128985761289761283d565b5b50919050565b7f4552433732313a20617070726f76656420717565727920666f72206e6f6e657860008201527f697374656e7420746f6b656e0000000000000000000000000000000000000000602082015250565b60006128fa602c83612354565b91506129058261289e565b604082019050919050565b60006020820190508181036000830152612929816128ed565b9050919050565b7f4552433732313a20617070726f76616c20746f2063757272656e74206f776e6560008201527f7200000000000000000000000000000000000000000000000000000000000000602082015250565b600061298c602183612354565b915061299782612930565b604082019050919050565b600060208201905081810360008301526129bb8161297f565b9050919050565b7f4552433732313a20617070726f76652063616c6c6572206973206e6f74206f7760008201527f6e6572206e6f7220617070726f76656420666f7220616c6c0000000000000000602082015250565b6000612a1e603883612354565b9150612a29826129c2565b604082019050919050565b60006020820190508181036000830152612a4d81612a11565b9050919050565b7f4552433732313a207472616e736665722063616c6c6572206973206e6f74206f60008201527f776e6572206e6f7220617070726f766564000000000000000000000000000000602082015250565b6000612ab0603183612354565b9150612abb82612a54565b604082019050919050565b60006020820190508181036000830152612adf81612aa3565b9050919050565b7f455243373231456e756d657261626c653a206f776e657220696e646578206f7560008201527f74206f6620626f756e6473000000000000000000000000000000000000000000602082015250565b6000612b42602b83612354565b9150612b4d82612ae6565b604082019050919050565b60006020820190508181036000830152612b7181612b35565b9050919050565b7f455243373231456e756d657261626c653a20676c6f62616c20696e646578206f60008201527f7574206f6620626f756e64730000000000000000000000000000000000000000602082015250565b6000612bd4602c83612354565b9150612bdf82612b78565b604082019050919050565b60006020820190508181036000830152612c0381612bc7565b9050919050565b7f4e487b7100000000000000000000000000000000000000000000000000000000600052603260045260246000fd5b7f4552433732313a206f776e657220717565727920666f72206e6f6e657869737460008201527f656e7420746f6b656e0000000000000000000000000000000000000000000000602082015250565b6000612c95602983612354565b9150612ca082612c39565b604082019050919050565b60006020820190508181036000830152612cc481612c88565b9050919050565b7f4552433732313a2062616c616e636520717565727920666f7220746865207a6560008201527f726f206164647265737300000000000000000000000000000000000000000000602082015250565b6000612d27602a83612354565b9150612d3282612ccb565b604082019050919050565b60006020820190508181036000830152612d5681612d1a565b9050919050565b7f4f776e61626c653a2063616c6c6572206973206e6f7420746865206f776e6572600082015250565b6000612d93602083612354565b9150612d9e82612d5d565b602082019050919050565b60006020820190508181036000830152612dc281612d86565b9050919050565b7f4552433732313a20617070726f766520746f2063616c6c657200000000000000600082015250565b6000612dff601983612354565b9150612e0a82612dc9565b602082019050919050565b60006020820190508181036000830152612e2e81612df2565b9050919050565b7f4e487b7100000000000000000000000000000000000000000000000000000000600052601160045260246000fd5b6000612e6f82612404565b9150612e7a83612404565b9250827fffffffffffffffffffffffffffffffffffffffffffffffffffffffffffffffff03821115612eaf57612eae612e35565b5b828201905092915050565b7f4552433732314d657461646174613a2055524920717565727920666f72206e6f60008201527f6e6578697374656e7420746f6b656e0000000000000000000000000000000000602082015250565b6000612f16602f83612354565b9150612f2182612eba565b604082019050919050565b60006020820190508181036000830152612f4581612f09565b9050919050565b600081905092915050565b6000612f6282612349565b612f6c8185612f4c565b9350612f7c818560208601612365565b80840191505092915050565b6000612f948285612f57565b9150612fa08284612f57565b91508190509392505050565b7f4f776e61626c653a206e6577206f776e657220697320746865207a65726f206160008201527f6464726573730000000000000000000000000000000000000000000000000000602082015250565b6000613008602683612354565b915061301382612fac565b604082019050919050565b6000602082019050818103600083015261303781612ffb565b9050919050565b7f4552433732313a206f70657261746f7220717565727920666f72206e6f6e657860008201527f697374656e7420746f6b656e0000000000000000000000000000000000000000602082015250565b600061309a602c83612354565b91506130a58261303e565b604082019050919050565b600060208201905081810360008301526130c98161308d565b9050919050565b7f4552433732313a207472616e73666572206f6620746f6b656e2074686174206960008201527f73206e6f74206f776e0000000000000000000000000000000000000000000000602082015250565b600061312c602983612354565b9150613137826130d0565b604082019050919050565b6000602082019050818103600083015261315b8161311f565b9050919050565b7f4552433732313a207472616e7366657220746f20746865207a65726f2061646460008201527f7265737300000000000000000000000000000000000000000000000000000000602082015250565b60006131be602483612354565b91506131c982613162565b604082019050919050565b600060208201905081810360008301526131ed816131b1565b9050919050565b60006131ff82612404565b915061320a83612404565b92508282101561321d5761321c612e35565b5b828203905092915050565b7f4552433732313a207472616e7366657220746f206e6f6e20455243373231526560008201527f63656976657220696d706c656d656e7465720000000000000000000000000000602082015250565b6000613284603283612354565b915061328f82613228565b604082019050919050565b600060208201905081810360008301526132b381613277565b9050919050565b60006132c582612404565b91507fffffffffffffffffffffffffffffffffffffffffffffffffffffffffffffffff8214156132f8576132f7612e35565b5b600182019050919050565b7f4e487b7100000000000000000000000000000000000000000000000000000000600052601260045260246000fd5b600061333d82612404565b915061334883612404565b92508261335857613357613303565b5b828204905092915050565b600061336e82612404565b915061337983612404565b92508261338957613388613303565b5b828206905092915050565b600081519050919050565b600082825260208201905092915050565b60006133bb82613394565b6133c5818561339f565b93506133d5818560208601612365565b6133de81612398565b840191505092915050565b60006080820190506133fe6000830187612499565b61340b6020830186612499565b613418604083018561252f565b818103606083015261342a81846133b0565b905095945050505050565b600081519050613444816122ba565b92915050565b6000602082840312156134605761345f612284565b5b600061346e84828501613435565b91505092915050565b7f4552433732313a206d696e7420746f20746865207a65726f2061646472657373600082015250565b60006134ad602083612354565b91506134b882613477565b602082019050919050565b600060208201905081810360008301526134dc816134a0565b9050919050565b7f4552433732313a20746f6b656e20616c7265616479206d696e74656400000000600082015250565b6000613519601c83612354565b9150613524826134e3565b602082019050919050565b600060208201905081810360008301526135488161350c565b9050919050565b7f4e487b7100000000000000000000000000000000000000000000000000000000600052603160045260246000fdfea26469706673582212204b9bbc17df811121f03f83dd8e0deda74fe63afe30c60dc86e876bc41668231164736f6c634300080a0033",
  "immutableReferences": {},
  "source": "// SPDX-License-Identifier: MIT\npragma solidity ^0.8.0;\n\nimport \"@openzeppelin/contracts/token/ERC721/ERC721.sol\";\nimport \"@openzeppelin/contracts/token/ERC721/extensions/ERC721Enumerable.sol\";\nimport \"@openzeppelin/contracts/access/Ownable.sol\";\n\ncontract newCar is ERC721, ERC721Enumerable, Ownable {\n    \n    uint256 public tokenCounter;\n    uint256 public newCarPrice;\n    // mapping (uint => address) public carToOwner;\n    // mapping (address => uint) ownerCount;\n\n    event newMint(uint256 tokenId);\n    constructor() ERC721(\"newCar\", \"NCR\") {\n        \n        tokenCounter = 0;   \n        setCarPrice(0.02 ether);\n    }\n\n    function _beforeTokenTransfer(address from, address to, uint256 tokenId) internal override(ERC721, ERC721Enumerable)\n    {\n        super._beforeTokenTransfer(from, to, tokenId);\n    }\n\n    function supportsInterface(bytes4 interfaceId) public view override(ERC721, ERC721Enumerable) returns (bool)\n    {\n        return super.supportsInterface(interfaceId);\n    }\n    \n    function mintCar(address carBuyer) public payable {\n        // require(msg.value >= newCarPrice, \"insufficient ETH\");\n        uint256 tokenId = tokenCounter; \n        _safeMint(carBuyer, tokenId); // put in mint value\n        tokenCounter = tokenCounter +1;\n        // carToOwner[tokenId] = msg.sender;\n        // ownerCount[msg.sender] = ownerCount[msg.sender].add(1);\n        emit newMint(tokenId);\n    }\n    \n    function transferCar(address newOwner, uint256 tokenId) public payable {\n        // require\n        safeTransferFrom(msg.sender, newOwner, tokenId); /// include transfer value\n    }\n    \n    function getCarPrice() public view returns (uint256) {\n        return newCarPrice;\n    }\n    \n    function setCarPrice(uint256 carPrice) public onlyOwner {\n        newCarPrice = carPrice;\n    }\n\n\n    // function getCarsByOwner(address _owner) public view returns (uint256[] memory) {\n    //     uint256[] memory result = new uint256[] (_ownedTokens[_owner]);\n    //     uint256 counter = 0;\n    //     for (uint256 i =0; i < _allTokens.length; i++) {\n    //         if (_ownedTokensIndex[i] == _owner) {\n    //             result[counter] = i;\n    //             counter++;\n    //         }\n    //     }\n    //     return result;\n    // }\n}",
  "sourcePath": "/Volumes/GoogleDrive/My Drive/Web Development/Projects/github/blockchain-developer-bootcamp-final-project/contracts/NewCar.sol",
  "compiler": {
    "name": "solc",
    "version": "0.8.10+commit.fc410830.Emscripten.clang"
  },
  "schemaVersion": "3.4.3",
  "updatedAt": "2022-01-09T19:12:20.613Z",
  "networkType": "ethereum",
  "devdoc": {
    "kind": "dev",
    "methods": {
      "approve(address,uint256)": {
        "details": "See {IERC721-approve}."
      },
      "balanceOf(address)": {
        "details": "See {IERC721-balanceOf}."
      },
      "getApproved(uint256)": {
        "details": "See {IERC721-getApproved}."
      },
      "isApprovedForAll(address,address)": {
        "details": "See {IERC721-isApprovedForAll}."
      },
      "name()": {
        "details": "See {IERC721Metadata-name}."
      },
      "owner()": {
        "details": "Returns the address of the current owner."
      },
      "ownerOf(uint256)": {
        "details": "See {IERC721-ownerOf}."
      },
      "renounceOwnership()": {
        "details": "Leaves the contract without owner. It will not be possible to call `onlyOwner` functions anymore. Can only be called by the current owner. NOTE: Renouncing ownership will leave the contract without an owner, thereby removing any functionality that is only available to the owner."
      },
      "safeTransferFrom(address,address,uint256)": {
        "details": "See {IERC721-safeTransferFrom}."
      },
      "safeTransferFrom(address,address,uint256,bytes)": {
        "details": "See {IERC721-safeTransferFrom}."
      },
      "setApprovalForAll(address,bool)": {
        "details": "See {IERC721-setApprovalForAll}."
      },
      "symbol()": {
        "details": "See {IERC721Metadata-symbol}."
      },
      "tokenByIndex(uint256)": {
        "details": "See {IERC721Enumerable-tokenByIndex}."
      },
      "tokenOfOwnerByIndex(address,uint256)": {
        "details": "See {IERC721Enumerable-tokenOfOwnerByIndex}."
      },
      "tokenURI(uint256)": {
        "details": "See {IERC721Metadata-tokenURI}."
      },
      "totalSupply()": {
        "details": "See {IERC721Enumerable-totalSupply}."
      },
      "transferFrom(address,address,uint256)": {
        "details": "See {IERC721-transferFrom}."
      },
      "transferOwnership(address)": {
        "details": "Transfers ownership of the contract to a new account (`newOwner`). Can only be called by the current owner."
      }
    },
    "version": 1
  },
  "userdoc": {
    "kind": "user",
    "methods": {},
    "version": 1
  }
}